:020000040800F2
:10000000000002208136000881330008893300088F
:100010009133000899330008A13300080000000064
:10002000000000000000000000000000A9330008EC
:10003000B733000800000000C5330008D3330008C0
:10004000D1360008D1360008D1360008D136000874
:10005000D1360008D1360008DF330008D136000859
:10006000D1360008D1360008D1360008D136000854
:10007000D1360008D1360008D1360008D136000844
:10008000D1360008D1360008D1360008D136000834
:10009000D1360008D1360008D1360008D136000824
:1000A000ED33000801340008153400082934000835
:1000B000D1360008D1360008D1360008D136000804
:1000C000D1360008D1360008D13600083D3400088A
:1000D000D1360008D1360008D1360008D1360008E4
:1000E000D1360008D1360008D1360008D1360008D4
:1000F000D1360008513400086D340008D1360008AC
:10010000D1360008D1360008D1360008D1360008B3
:10011000D1360008D1360008D1360008D1360008A3
:10012000D1360008D1360008D1360008D136000893
:10013000D1360008D1360008D136000881340008D5
:1001400095340008A9340008BD340008D1360008F1
:10015000D1360008D1360008D1360008D136000863
:10016000D1360008D1360008D1360008D136000853
:10017000D1360008D1360008D13600080000000052
:08018000D1360008D136000859
:1001900010B5054C237833B9044B13B10448AFF3C1
:1001A00000800123237010BDD80100200000000052
:1001B000ACA2000808B5034B1BB103490348AFF3D9
:1001C000008008BD00000000DC010020ACA2000897
:1001D00001F0FF01102A2BDB10F0070F08D010F8F8
:1001E000013B013A8B422DD010F0070F42B3F6D1FC
:1001F000F0B441EA012141EA014122F007047FF015
:1002000000070023F0E80256083C85EA010586EA6B
:10021000010685FA47F5A3FA87F586FA47F6A5FAA7
:1002200087F68EB9EED1F0BC01F0FF0102F00702B3
:1002300032B110F8013B013A83EA010313B1F8D15E
:100240000020704701387047002D06BF354603383F
:10025000073815F0010F07D1013015F4807F02BF78
:10026000013015F4C03F0130F0BC0138704700BFC9
:10027000034613F8012B002AFBD1181A01387047E6
:1002800081F0004102E000BF83F0004330B54FEA47
:1002900041044FEA430594EA050F08BF90EA020FB4
:1002A0001FBF54EA000C55EA020C7FEA645C7FEA47
:1002B000655C00F0E2804FEA5454D4EB5555B8BF6A
:1002C0006D420CDD2C4480EA020281EA030382EADB
:1002D000000083EA010180EA020281EA0303362D6D
:1002E00088BF30BD11F0004F4FEA01314FF4801C40
:1002F0004CEA113102D0404261EB410113F0004F52
:100300004FEA03334CEA133302D0524263EB430308
:1003100094EA050F00F0A780A4F10104D5F1200EA6
:100320000DDB02FA0EFC22FA05F2801841F1000101
:1003300003FA0EF2801843FA05F359410EE0A5F1D5
:1003400020050EF1200E012A03FA0EFC28BF4CF006
:10035000020C43FA05F3C01851EBE37101F00045BC
:1003600007D54FF0000EDCF1000C7EEB00006EEBC9
:100370000101B1F5801F1BD3B1F5001F0CD3490853
:100380005FEA30004FEA3C0C04F101044FEA4452AA
:1003900012F5800F80F09A80BCF1004F08BF5FEA31
:1003A000500C50F1000041EB045141EA050130BD11
:1003B0005FEA4C0C404141EB0101013C28BFB1F523
:1003C000801FE9D291F0000F04BF01460020B1FA6E
:1003D00081F308BF2033A3F10B03B3F120020CDA41
:1003E0000C3208DD02F1140CC2F10C0201FA0CF01F
:1003F00021FA02F10CE002F11402D8BFC2F1200C84
:1004000001FA02F120FA0CFCDCBF41EA0C01904039
:10041000E41AA2BF01EB0451294330BD6FEA040482
:100420001F3C1CDA0C340EDC04F11404C4F120026D
:1004300020FA04F001FA02F340EA030021FA04F37F
:1004400045EA030130BDC4F10C04C4F1200220FAD6
:1004500002F001FA04F340EA0300294630BD21FA14
:1004600004F0294630BD94F0000F83F4801306BFDA
:1004700081F480110134013D4EE77FEA645C18BFCE
:100480007FEA655C29D094EA050F08BF90EA020F65
:1004900005D054EA000C04BF1946104630BD91EA5D
:1004A000030F1EBF0021002030BD5FEA545C05D160
:1004B0004000494128BF41F0004130BD14F580049F
:1004C0003CBF01F5801130BD01F0004545F0FE4113
:1004D00041F470014FF0000030BD7FEA645C1ABF48
:1004E000194610467FEA655C1CBF0B46024650EA7F
:1004F000013406BF52EA033591EA030F41F40021AB
:1005000030BD00BF90F0000F04BF0021704730B530
:100510004FF4806404F132044FF000054FF0000105
:1005200050E700BF90F0000F04BF0021704730B5C6
:100530004FF4806404F1320410F0004548BF40429B
:100540004FF000013EE700BF42004FEAE2014FEAF0
:1005500031014FEA02701FBF12F07F4393F07F4FCB
:1005600081F06051704732F07F4208BF704793F0CE
:100570007F4F04BF41F40021704730B54FF46074E1
:1005800001F0004521F000411CE700BF50EA0102E4
:1005900008BF704730B54FF000050AE050EA01028D
:1005A00008BF704730B511F0004502D5404261EBFD
:1005B00041014FF4806404F132045FEA915C3FF43E
:1005C000D8AE4FF003025FEADC0C18BF03325FEADB
:1005D000DC0C18BF033202EBDC02C2F1200300FA8C
:1005E00003FC20FA02F001FA03FE40EA0E0021FAB1
:1005F00002F11444BDE600BF70B54FF0FF0C4CF49F
:10060000E06C1CEA11541DBF1CEA135594EA0C0F50
:1006100095EA0C0F00F0DEF82C4481EA030621EA8B
:100620004C5123EA4C5350EA013518BF52EA0335C6
:1006300041F4801143F4801338D0A0FB02CE4FF078
:100640000005E1FB02E506F00042E0FB03E54FF0A8
:100650000006E1FB03569CF0000F18BF4EF0010EA0
:10066000A4F1FF04B6F5007F64F5407404D25FEA9C
:100670004E0E6D4146EB060642EAC62141EA55514F
:100680004FEAC52040EA5E504FEACE2EB4F1FD0C91
:1006900088BFBCF5E06F1ED8BEF1004F08BF5FEA0F
:1006A000500E50F1000041EB045170BD06F00046C1
:1006B00046EA010140EA020081EA0301B4EB5C046E
:1006C000C2BFD4EB0C0541EA045170BD41F4801166
:1006D0004FF0000E013C00F3AB8014F1360FDEBF8B
:1006E000002001F0004170BDC4F10004203C35DA67
:1006F0000C341BDC04F11404C4F1200500FA05F3EA
:1007000020FA04F001FA05F240EA020001F000428A
:1007100021F0004110EBD37021FA04F642EB060100
:100720005EEA430E08BF20EAD37070BDC4F10C042A
:10073000C4F1200500FA04F320FA05F001FA04F2EE
:1007400040EA020001F0004110EBD37041F10001DA
:100750005EEA430E08BF20EAD37070BDC4F12005E5
:1007600000FA05F24EEA020E20FA04F301FA05F24D
:1007700043EA020321FA04F001F0004121FA04F2F5
:1007800020EA020000EBD3705EEA430E08BF20EAC5
:10079000D37070BD94F0000F0FD101F000464000FF
:1007A00041EB010111F4801F08BF013CF7D041EA81
:1007B000060195F0000F18BF704703F00046520085
:1007C00043EB030313F4801F08BF013DF7D043EA56
:1007D0000603704794EA0C0F0CEA135518BF95EA0C
:1007E0000C0F0CD050EA410618BF52EA4306D1D193
:1007F00081EA030101F000414FF0000070BD50EAB2
:10080000410606BF1046194652EA430619D094EA3B
:100810000C0F02D150EA013613D195EA0C0F05D125
:1008200052EA03361CBF104619460AD181EA030179
:1008300001F0004141F0FE4141F470014FF0000031
:1008400070BD41F0FE4141F4780170BD70B54FF0CC
:10085000FF0C4CF4E06C1CEA11541DBF1CEA13554C
:1008600094EA0C0F95EA0C0F00F0A7F8A4EB05042E
:1008700081EA030E52EA03354FEA013100F0888025
:100880004FEA03334FF0805545EA131343EA1263EE
:100890004FEA022245EA111545EA10654FEA0026A3
:1008A0000EF000419D4208BF964244F1FD0404F55C
:1008B000407402D25B084FEA3202B61A65EB0305B8
:1008C0005B084FEA32024FF480104FF4002CB6EB75
:1008D000020E75EB030E22BFB61A754640EA0C00F5
:1008E0005B084FEA3202B6EB020E75EB030E22BF35
:1008F000B61A754640EA5C005B084FEA3202B6EB76
:10090000020E75EB030E22BFB61A754640EA9C0034
:100910005B084FEA3202B6EB020E75EB030E22BF04
:10092000B61A754640EADC0055EA060E18D04FEAC2
:10093000051545EA16754FEA06164FEAC30343EA62
:1009400052734FEAC2025FEA1C1CC0D111F4801F2F
:100950000BD141EA00014FF000004FF0004CB6E728
:1009600011F4801F04BF01430020B4F1FD0C88BFC7
:10097000BCF5E06F3FF6AFAEB5EB030C04BFB6EBD2
:10098000020C5FEA500C50F1000041EB045170BDC5
:100990000EF0004E4EEA113114EB5C04C2BFD4EBF2
:1009A0000C0541EA045170BD41F480114FF0000E76
:1009B000013C90E645EA060E8DE60CEA135594EAF2
:1009C0000C0F08BF95EA0C0F3FF43BAF94EA0C0FF5
:1009D0000AD150EA01347FF434AF95EA0C0F7FF46A
:1009E00025AF104619462CE795EA0C0F06D152EABE
:1009F00003353FF4FDAE1046194622E750EA4106A2
:100A000018BF52EA43067FF4C5AE50EA41047FF4B2
:100A10000DAF52EA43057FF4EBAE12E74FF0FF3C17
:100A200006E000BF4FF0010C02E000BF4FF0010CE8
:100A30004DF804CD4FEA410C7FEA6C5C4FEA430C61
:100A400018BF7FEA6C5C1BD001B050EA410C0CBFB0
:100A500052EA430C91EA030F02BF90EA020F002012
:100A6000704710F1000F91EA030F58BF994208BF79
:100A700090422CBFD8176FEAE37040F00100704736
:100A80004FEA410C7FEA6C5C02D150EA013C07D18D
:100A90004FEA430C7FEA6C5CD6D152EA033CD3D0D8
:100AA0005DF8040B704700BF8446104662468C46D2
:100AB0001946634600E000BF01B5FFF7B7FF002805
:100AC00048BF10F1000F01BD4DF808EDFFF7F4FF2E
:100AD0000CBF012000205DF808FB00BF4DF808EDB9
:100AE000FFF7EAFF34BF012000205DF808FB00BFDC
:100AF0004DF808EDFFF7E0FF94BF012000205DF8FE
:100B000008FB00BF4DF808EDFFF7CEFF94BF0120B2
:100B100000205DF808FB00BF4DF808EDFFF7C4FFAB
:100B200034BF012000205DF808FB00BF4FEA410CF4
:100B30007FEA6C5C02D150EA013C0AD14FEA430CD7
:100B40007FEA6C5C02D152EA033C02D14FF0000014
:100B500070474FF0010070474FEA410212F5001252
:100B600015D211D56FF47873B3EB625212D94FEAF4
:100B7000C12343F0004343EA505311F0004F23FADE
:100B800002F018BF404270474FF00000704750EA33
:100B9000013005D111F0004008BF6FF000407047F0
:100BA0004FF00000704700BF53B94AB9002908BF91
:100BB00000281CBF4FF0FF314FF0FF3000F088B924
:100BC000ADF1080C6DE904CE00F006F8DDF804E0A4
:100BD000DDE9022304B070472DE9F047089D8E46F9
:100BE00004468846002B4AD18A42174662D9B2FA97
:100BF00082F64EB1C6F1200301FA06F820FA03F39B
:100C0000B74043EA0808B4404FEA174E1FFA87FC82
:100C1000B8FBFEF1230C0EFB118843EA084301FBED
:100C20000CF29A4209D9FB1801F1FF3080F0EA80FA
:100C30009A4240F2E78002393B449A1AA3B2B2FBCF
:100C4000FEF00EFB102243EA024300FB0CFC9C4525
:100C500009D9FB1800F1FF3280F0D6809C4540F2A4
:100C6000D3803B44023840EA0140A3EB0C0300214F
:100C70001DB1F3400022C5E90032BDE8F0878B4288
:100C800005D90DB1C5E9000100210846F5E7B3FA21
:100C900083F1002946D1734502D3824200F20581D7
:100CA000841A6EEB030201209046002DE5D0C5E9C1
:100CB0000048E2E7002A00F09080B2FA82F6002EA7
:100CC00040F0A4808A1A030C4FEA174E80B2BCB2DF
:100CD0000121B2FBFEFC0EFB1C2243EA024304FB93
:100CE0000CF29A4207D9FB180CF1FF3802D29A4253
:100CF00000F2E080C4469B1AB3FBFEF20EFB1233F7
:100D000040EA034302FB04F49C4207D9FB1802F1BA
:100D1000FF3002D29C4200F2CA8002461B1B42EA0C
:100D20000C40A5E7C1F120068B4022FA06F71F43CD
:100D30000EFA01F420FA06F32EFA06FE4FEA1749DE
:100D4000234300FA01F81FFA87FCBEFBF9F01C0CE4
:100D500009FB10EE44EA0E4400FB0CFEA64502FA25
:100D600001F209D93C1900F1FF3A80F09C80A645B8
:100D700040F2998002383C44A4EB0E041FFA83FE33
:100D8000B4FBF9F309FB13444EEA044403FB0CFCE7
:100D9000A44508D93C1903F1FF3E80F08280A445A8
:100DA0007FD9023B3C4443EA0040A4EB0C04A0FB87
:100DB00002EC64457346E14662D35FD05DB1B8EBA7
:100DC000030264EB090404FA06F622FA01F31E4357
:100DD000CC40C5E9006400214FE7B1FBF2FC010CF7
:100DE00041EA0E4180B240EA01423B4638463C4669
:100DF000B846BE462026B1FBF7F1A2EB080241EA55
:100E00000C4166E7014618E710462CE7C6F12002C0
:100E10002EFA02F3B740B14020FA02F24FEA174E21
:100E20000A43B3FBFEF8BCB20EFB1833110C41EAC7
:100E3000034108FB04F9B04089454FEA104380B2F2
:100E40003ED9791808F1FF3C01D289451FD8A1EBA2
:100E50000901B1FBFEF909FB04F80EFB191192B26E
:100E600042EA0142424529D2BA1809F1FF31C4D2FF
:100E70004245C2D2A9F102013A44BEE7F0459DD2F3
:100E8000BEEB02036CEB070C0138E14696E7A7EBDB
:100E900009094944A8F1020CB1FBFEF909FB04F869
:100EA000DBE773467FE7504666E70846FDE63B44CE
:100EB000023A33E7ACF1020C3B441CE749469CE79D
:100EC000A1EB0901C446B1FBFEF909FB04F8C4E734
:100ED000704700BF80B400AFBFF34F8F00BF064B19
:100EE000DB6803F4E0620449044B1343CB60BFF3B7
:100EF0004F8F00BF00BFFDE700ED00E00400FA05E2
:100F000080B588B000AFF860B9607A603B6002F0ED
:100F100047FCB86108E002F043FC0246BB69D31A03
:100F2000022B01D9022327E0F86802F0C2FF034632
:100F3000002BF0D03B687A68B968F86802F0E9FEE7
:100F40000346FB75FB7D002B15D00023FB610DE0F4
:100F50003B687A68B968F86802F0DBFE0346002B4C
:100F600001D1002308E0FB690133FB61FB69012B20
:100F7000EEDD012300E0002318462037BD4680BD8A
:100F800080B582B000AF78607868FFF771F90346EA
:100F90009AB24FF0FF337968034805F08BFE00BF2B
:100FA0000837BD4680BD00BFFC03002080B594B06B
:100FB00000AF03460A46FB711346BB710023BB63B7
:100FC00000233B6400237B640223BB64012387F876
:100FD0002C30BB7987F82D3007F1340307F12C0250
:100FE00007F138013648FFF78BFF642002F0E4FB7D
:100FF000BB7903F5C063BB630823BB642F2387F869
:101000002430602387F82530602387F826300023BA
:1010100087F82730FB7987F82830002387F82930B4
:10102000002387F82A30002387F82B3007F1340398
:1010300007F1240207F138012148FFF761FF322050
:1010400002F0BAFB1F4A07F11C0392E8030083E891
:10105000030007F1340307F11C0207F138011848B7
:10106000FFF74EFF322002F0A7FB174A07F11403E7
:1010700092E8030083E8030007F1340307F1140248
:1010800007F138010E48FFF73BFF322002F094FBD6
:101090000E4A07F10C0392E8030083E8030007F10E
:1010A000340307F10C0207F138010548FFF728FF68
:1010B000642002F081FB00BF5037BD4680BD00BFF9
:1010C000FC010020F0A20008F8A2000800A300081C
:1010D00080B582B000AF0346FB800A4B1B6800223C
:1010E0005A62084805F0FEF800BF064B1B685A6AB2
:1010F000FB889A42F9D3034805F05CF900BF083732
:10110000BD4680BD2403002080B500AF0022082129
:10111000024803F051FE00BF80BD00BF0010024036
:1011200080B500AF01220821024803F045FE00BF50
:1011300080BD00BF0010024080B588B002AFF860EB
:10114000B9601346FB71FFF7DFFF0F20FFF7C0FF09
:101150000023FB7511E0FB7DFA68D118FB7DBA68AE
:101160001A446423009301230A4804F0C8FC0A20AF
:10117000FFF7AEFFFB7D0133FB75FA7DFB799A42E9
:10118000E9D3FFF7CDFF1E20FFF7A2FF00BF1837FE
:10119000BD4680BDCC02002080B58CB000AF224B94
:1011A000BB62002387F82C30204A07F1200392E825
:1011B00003001860043319701D4A07F1180392E800
:1011C00003001860043319701A4A07F1100392E8FB
:1011D0000300186004331970391D07F12803052234
:1011E0001846FFF7A9FF391D07F12003052218460D
:1011F000FFF7A2FF391D07F1180305221846FFF774
:101200009BFF391D07F1100305221846FFF794FFD5
:101210004FF4FA7002F0D0FA0748FFF7B1FE00BFB2
:101220003037BD4680BD00BF014300011CA300084C
:1012300024A300082CA3000808A3000880B58AB0E6
:1012400000AF7860234A07F1200392E8030018609A
:101250000433198044F201237B6107F11803002253
:101260001A601A7107F1080300221A605A601A7294
:1012700007F1080107F1140309221846FFF75CFF84
:101280007B7A732B0CBF01230023DAB2124B1A7046
:101290003B7B1BB21B021AB2FB7A1BB213431BB27D
:1012A0009BB23B847B7B87F82230BB7B87F8233063
:1012B000FB7B87F824303B7C87F825307B681A4617
:1012C00007F12003186810609B889380786828379E
:1012D000BD4680BD34A30008B504002080B594B09D
:1012E00002AF012387F84730002387F84630FFF725
:1012F0000BFF0F20FFF7ECFE07F1460207F1470155
:101300006423009301230A4804F0F9FBFFF708FF68
:1013100097F84630381D074A402106F05BFE3B1D1A
:101320001846FFF72DFE00BF4837BD4680BD00BF01
:10133000CC0200203CA3000890B58DB000AF04465D
:10134000084611461A462346FB710346BB800B46EE
:10135000BB711346FB702F233B73BB88DBB27B73DF
:10136000BB881B0A9BB2DBB2BB73BB79FB73FB78F8
:101370003B7400237B740023BB740023FB74FB7954
:1013800003F5C063BB610823BB6200233B620023FB
:101390007B6207F1140307F10C0207F118010548FD
:1013A000FFF7AEFD0A2002F007FA00BF3437BD4652
:1013B00090BD00BFFC01002090B58DB000AF044689
:1013C000084611461A462346FB710346BB800B466E
:1013D000BB7113467B802B233B73BB88DBB27B73D3
:1013E000BB881B0A9BB2DBB2BB73BB79FB737B88E8
:1013F000DBB23B747B881B0A9BB2DBB27B7400239D
:10140000BB740023FB74FB7903F5C063BB61082345
:10141000BB6200233B6200237B6207F1140307F1E8
:101420000C0207F118010548FFF76AFD0A2002F0D7
:10143000C3F900BF3437BD4690BD00BFFC0100209A
:1014400080B58CB000AF3B600346FB710B46BB80A0
:101450001346BB7123233B73BB88DBB27B73BB8812
:101460001B0A9BB2DBB2BB73BB79FB733B68DBB27D
:101470003B743B681B0ADBB27B743B681B0CDBB222
:10148000BB743B681B0EDBB2FB74FB7903F5C063D6
:10149000BB610823BB6200233B6200237B6207F130
:1014A000140307F10C0207F118010548FFF728FDA6
:1014B0000A2002F081F900BF3037BD4680BD00BF71
:1014C000FC01002080B582B000AF0346FB71F879C3
:1014D000164B01224FF4A051FFF7B2FFF879002319
:1014E00000224FF4B051FFF727FFF879104B01228B
:1014F0004FF4B051FFF7A4FFF8790E4B02224FF4DE
:10150000B051FFF79DFFF879022300224FF4B0514C
:10151000FFF712FFF8794FF4007301224FF4A05146
:10152000FFF78EFF00BF0837BD4680BD0002008078
:10153000100040602000FF6080B582B000AF03461D
:10154000FB71F879134B01224FF4C051FFF778FF7C
:10155000F879002300224FF4D051FFF7EDFEF8791F
:101560000D4B01224FF4D051FFF76AFFF8790123A8
:1015700000224FF4D051FFF7DFFEF8794FF40073EB
:1015800001224FF4C051FFF75BFF00BF0837BD4693
:1015900080BD00BF0002008020006C6080B582B07A
:1015A00000AF0346FB71F879164B01224FF4C0518E
:1015B000FFF746FFF879002300224FF4D051FFF7E0
:1015C000BBFEF879104B01224FF4D051FFF738FFE2
:1015D000F8790E4B02224FF4D051FFF731FFF87922
:1015E000022300224FF4D051FFF7A6FEF8794FF402
:1015F000007301224FF4C051FFF722FF00BF0837EC
:10160000BD4680BD00020080100041602000646083
:1016100080B582B000AF0346FB71F87980230022C9
:1016200046F24001FFF7C8FE0A2002F0C5F8F8793B
:101630000623002246F24001FFF7BEFE0A2002F018
:10164000BBF8F8790723002246F24001FFF7B4FE09
:101650000A2002F0B1F8F8790F23002246F2400187
:10166000FFF7AAFE0A2002F0A7F800BF0837BD4620
:1016700080BD000080B588B000AF0023FB718023DF
:10168000BB6000233B6100237B610023BB613B46C1
:10169000FA1D07F108010648FFF732FC054B1B68ED
:1016A0000133044A136000BF2037BD4680BD00BF30
:1016B000FC0100204804002080B588B000AFB9606C
:1016C0007B600346FB731346BB73F87B7B68002289
:1016D00046F28301FFF7B4FEF87BBB6A002246F2B4
:1016E0008401FFF7ADFE012002F066F8BB7B002B02
:1016F00007D0274B1B78002B01D01F2302E00F23BC
:1017000000E00F23FB83224B1B78002B14BF012327
:101710000023DBB283F00103DBB203F00103DAB292
:101720001B4B1A70FB8BDBB23B75FB8B1B0A9BB20E
:10173000DBB27B75BB68DBB2BB75BB681B12DBB26F
:10174000FB75BB681B14DBB23B76BB681B0EDBB2C0
:101750007B760023BB760023FB76FB7B03F50073CF
:101760001A460C4B1A600B4B00229A60094B002260
:10177000DA60084B08221A6107F11402064B05498A
:101780000648FFF7BDFB00BF2037BD4680BD00BF48
:10179000F404002058040020B8040020FC010020BC
:1017A00080B596B000AF786001F0FAFF78658F4B96
:1017B0001B6801338D4A13608D4B1B6801338C4AC3
:1017C000136007F11C0307F124020021786802F07E
:1017D000A5FB0346002B40F045817B6A40F2017275
:1017E000934204D07B6A40F20272934214D17B6B25
:1017F000012B11D13B7F002B0ED17B6A87F8533030
:1018000097F853307B4AD35CDBB2002B04D197F8B6
:101810005330794A0121D1547B6A40F2815293427C
:1018200004D07B6A40F28252934228D13B7F432B03
:1018300025D17B7F6C2B22D1BB7F602B1FD17B6A94
:10184000A3F5B063FB6497F820301A4697F821306F
:101850001B021A4397F822301B041A4397F82330CF
:101860001B061343BB64FB6C012B02D1634ABB6CA8
:101870001360FB6C022B02D1614ABB6C13607B6A64
:1018800040F28152934204D07B6A40F282529342EA
:101890002BD13B7F432B28D17B7F642B25D1BB7F72
:1018A000602B22D1FB7F002B1FD17B6AA3F5B06395
:1018B0007B6497F820301A4697F821301B021A43B0
:1018C00097F822301B041A4397F823301B06134362
:1018D0003B647B6C012B02D14A4A3B6C13607B6CEE
:1018E000022B02D1484A3B6C13607B6A302B17D124
:1018F0007B6B082B14D1454B1B78DBB2012B40F0DE
:10190000B380FB69424A13603B6A424A1360424B10
:1019100001221A70414B01221A70414B01221A70A8
:101920007B6A202B17D17B6B082B14D1FB69BB6121
:10193000BB69012B06D1354B00221A70394B0122AD
:101940001A7008E0BB69022B05D1304B01221A70D6
:10195000344B01221A707B6A212B1FD17B6B082B21
:101960001CD1FB697B617A692F4B1B689A4215D0A9
:101970007B692D4A13607B69012B06D101224FF44C
:1019800000612A4803F018FA08E07B69022B05D1B0
:1019900000224FF40061254803F00EFA7B6A182BF1
:1019A00014D17B6B082B11D1FB693B613B69012B87
:1019B00005D03B69022B02D03B69032B03D11C4BA2
:1019C00001221A7002E01A4B00221A707B6A502B17
:1019D00035D17B6B082B32D1FB69FB60FB68012B97
:1019E0002AD1144B01221A7029E000BFF401002013
:1019F000F8010020DC040020D8040020C4040020EA
:101A0000C8040020CC040020D0040020440400209E
:101A1000BC040020C0040020D4040020D504002011
:101A2000E2040020E0040020000000200004024046
:101A3000DF040020E10400200D4B00221A707B6AB5
:101A4000402B12D17B6B082B0FD1FB69BB60BB68AD
:101A5000002B0AD0BB681A46064B1A60064B0122BF
:101A60001A7002E000BF00E000BF5837BD4680BDDD
:101A7000E1040020E4040020E804002080B58CB0DC
:101A800000AF7860396001F08BFE0246224B1B6884
:101A9000D31A092B3CD901F083FE03461E4A13607A
:101AA0001123BB610823BB6200233B6200237B62DE
:101AB0007B68DBB23B737B681B12DBB27B737B689A
:101AC0001B14DBB2BB737B681B16DBB2FB733B687A
:101AD000DBB23B743B681B12DBB27B743B681B14AC
:101AE000DBB2BB743B681B16DBB2FB7407F114035B
:101AF00007F10C0207F118010848FFF701FA034645
:101B0000002B06D1064B1B680133054A136000E029
:101B100000BF3037BD4680BDF8040020FC01002026
:101B20005404002080B58CB000AF0346FB710D4B10
:101B30003B6100237B61FB7903F5C063BB6100233C
:101B40003B6200237B620823BB6207F10C0307F1B1
:101B5000100207F118010448FFF7D2F900BF30372F
:101B6000BD4680BD406C6000FC01002080B58CB09B
:101B700000AF0346FB710D4BFB6000233B61FB791B
:101B800003F5C063BB6100233B6200237B62082333
:101B9000BB6207F1140307F10C0207F118010448B6
:101BA000FFF7AEF900BF3037BD4680BD406460002E
:101BB000FC01002080B483B000AF78607B681B68B4
:101BC000064A934204D1064B1B680133044A136052
:101BD00000BF0C37BD465DF8047B704700680040CD
:101BE0007004002080B483B000AF78607B681B680D
:101BF000064A934204D1064B1B680133044A136022
:101C000000BF0C37BD465DF8047B7047006800409C
:101C10007004002080B483B000AF78607B681B68DC
:101C2000064A934204D1064B1B680133044A1360F1
:101C300000BF0C37BD465DF8047B7047006800406C
:101C40007004002080B5A4B000AF78607B685B6A48
:101C5000C7F88C30D7F88C30002B00F0988007F153
:101C60000C03D7F88C204C49184606F0E9F9D7F850
:101C70008C204A4B1340002B1CD0494B1B7801335E
:101C8000DAB2474B1A70786801F0FAFF786801F011
:101C9000B2FE786801F0B4FD786801F0ADFF4FF452
:101CA0000F41786802F05CFA3D4B1B78022B01D99A
:101CB000FFF710F9D7F88C3003F00103002B02D0A6
:101CC000384806F07FF9D7F88C3003F00203002B78
:101CD00002D0354806F076F9D7F88C3003F00803C7
:101CE000002B02D0314806F06DF9D7F88C3003F0A4
:101CF0001003002B02D02E4806F064F9D7F88C3080
:101D000003F04003002B02D02A4806F05BF9D7F815
:101D10008C3003F08003002B02D0274806F052F9E4
:101D2000D7F88C3003F48073002B02D0234806F0E0
:101D300049F9D7F88C3003F40033002B02D0204847
:101D400006F040F9D7F88C3003F48023002B02D042
:101D50001C4806F037F9D7F88C3003F40023002B29
:101D600002D0194806F02EF9D7F88C3003F480130E
:101D7000002B02D0154806F025F9D7F88C3003F473
:101D80000013002B04D0124806F01CF900E000BF3D
:101D90009037BD4680BD00BFD8A40008245601007E
:101DA000E9040020F4A4000808A500081CA5000808
:101DB00030A5000840A500085CA5000874A500082F
:101DC00084A5000898A50008ACA50008C4A50008D3
:101DD000DCA5000880B584B000AF3B4683E8030073
:101DE0003B8803F00103002B0CBF01230023FB738E
:101DF00001F0D6FCB860FB7B002B35D01E4B1B7866
:101E000083F00103DBB2002B2ED01C4B1B68BA6899
:101E1000D31AB3F5967F27D9184ABB681360184BBD
:101E20001B780133DAB2164B1A70154B1B78022B54
:101E30001AD9134B00221A70124B1B78DBB2012BFC
:101E400009D1104B00221A700F4B00221A600F4B61
:101E500000221A6008E00B4B01221A700A4B002284
:101E60001A600A4B00221A60034AFB7B137000BF02
:101E70001037BD4680BD00BFFC04002000050020D7
:101E80000405002044040020EC040020F00400209D
:101E900080B59CB002AF78604A4B1B78002B40F0B5
:101EA0008D80484B01221A707B6807EE903AB8EE9D
:101EB000677ADFED456AC7EE267A9FED447A67EED2
:101EC000877AB3EE047A67EE877AFDEEE77A17EE4B
:101ED000903AFB653E4B1B68BB653E4B1B687B65C0
:101EE00049F640433B653C4B00934CF25033012292
:101EF000396D0120FFF7E0FB374B00934CF2503374
:101F00000122396D0220FFF7D7FBFFF7B3FB01F089
:101F100047FC786601F044FC02467B6ED31A092B1D
:101F200045D901F03DFC7866294B1A68BB6DD31A80
:101F3000002BB8BF5B42FB64264B1A687B6DD31A3B
:101F4000002BB8BF5B42BB6407F10800BB6CFA6CA6
:101F5000224906F075F807F108031846FFF710F854
:101F6000FA6CFB6D9A4203DABA6CFB6D9A421EDB87
:101F700000233B6614E01A4B0093194B0122002109
:101F80000120FFF799FB164B0093154B012200210E
:101F90000220FFF791FBFFF76DFB3B6E01333B66C1
:101FA0003B6E0E2BE7DD074B00221A7007E0012085
:101FB000FFF7DCFD0220FFF7D9FDABE700BF683774
:101FC000BD4680BD050500200000B44300D8D646BC
:101FD000CC040020D0040020F0490200F4A5000841
:101FE000400D030080B59CB002AF01F073FB00F020
:101FF0004DFB00F065FD00F0E9FB00F043FC00F054
:1020000003FD00F025FD00F073FC00F00DFC00F076
:10201000A7FB00F0BDFCBA4804F064F9B94801F030
:10202000EBFD01210320FEF7C1FF02210320FEF793
:10203000BDFF0120FFF746FA0220FFF743FA012314
:102040007B630E23BB6200237B6200237B61002342
:10205000BB610023FB6100233B620023FB62012381
:102060003B630E23BB6307F114031946A54801F037
:10207000E5FCA44801F0C0FD48F60271A14802F059
:102080006FF800224FF400619F4802F095FE012294
:1020900008219E4802F090FE642001F08DFBFFF7BE
:1020A0007BF8FFF71BF901210320FEF77FFF0221D8
:1020B0000320FEF77BFF0120FFF704FA0220FFF761
:1020C00001FA0120FFF738FA0220FFF735FA012064
:1020D000FFF764FA0220FFF761FA00237B66002312
:1020E0003B660023FB650023BB65894B5B78DBB255
:1020F000002B48D0864B9B78DBB2002B43D0844B1F
:1021000000225A70824B00229A70322001F054FB58
:10211000804B01225A707F4B01229A7001210320CB
:10212000FEF744FF02210320FEF740FF0120FFF7E6
:10213000C9F90220FFF7C6F90120FFF7FDF90220D7
:10214000FFF7FAF90120FFF729FA0220FFF726FA34
:10215000714B00934CF25033012200210120FFF714
:10216000ABFA6D4B00934CF2503301220021022058
:10217000FFF7A2FA142001F01FFB0120FFF748FA35
:102180000220FFF745FA01F00BFB7865634B1B78E3
:10219000DBB2002B20D0624B00221A60614B002280
:1021A0001A604FF0FF337B664FF0FF333B665A4BAC
:1021B00000934CF25033012200210120FFF77CFAFA
:1021C000554B00934CF25033012200210220FFF7BF
:1021D00073FA524B00221A7000233B65524BFB648A
:1021E000524BBB64524B1B78DAB2524B1B789A426B
:1021F0001AD04F4B1B78DBB2002B10D1484B00227A
:102200001A60484B00221A604FF0FF337B664FF094
:10221000FF333B6601F0C4FA0346474A1360444B60
:102220001B78DAB2434B1A70444B1B687A6DD31A91
:10223000272B0DD9414A7B6D136007F10C0318461B
:10224000FEF7FCFF07F10C0393E80300FFF7C2FD64
:102250003B4B1B78DBB2002B40F01081394B1B68E5
:102260007A6DD31A272B40F20981364A7B6D1360B1
:102270003B1D1846FEF7E2FFBB8803F01003002B5E
:102280000CBF0123002387F84730BB8803F04003CD
:10229000002B0CBF0123002387F84630BB8803F4D2
:1022A0008053002B0CBF0123002387F84530BB88E7
:1022B00003F48043002B0CBF0123002387F8443034
:1022C000BB8803F02003002B0CBF0123002387F8F9
:1022D0004330BB881BB2DB439BB2DB0B87F8423039
:1022E0000F4B00221A600F4B00221A60104B1B7814
:1022F000DBB2002B33D197F84730002B28D023E0F6
:1023000024030020FC0100200004024000100240D1
:10231000D8040020DC040020400D0300E00400206D
:10232000EC040020F0040020B0AD01001098020081
:10233000DF04002006050020080500200C05002011
:102340004404002010050020FB6C5B427F4A1360B0
:1023500097F84530002B02D07D4AFB6C136097F84C
:102360004630002B02D0794AFB6C136097F844305A
:10237000002B03D0FB6C5B42754A136097F8433027
:10238000002B13D0F86CFEF7CDF84FF00002714B24
:10239000FEF732F902460B4610461946FEF7DCFB03
:1023A00003466A4A13606A4AFB6C136097F842302E
:1023B000002B14D0FB6C5B42644A1360F86CFEF790
:1023C000B1F84FF00002644BFEF716F902460B46D7
:1023D00010461946FEF7C0FB03465D4A1360BB88F2
:1023E000FF2B02D05D4A7B6D13605C4B1B687A6DDE
:1023F000D31AB3F5FA7F13D9544B1B68002B03D1C2
:10240000534B1B68002B0BD0504B00221A60504BD3
:1024100000221A604FF0FF337B664FF0FF333B66BC
:102420004A4B1B687A6E9A4211D0484B19684C4B44
:1024300000934CF2503301220120FFF73DF9494B44
:102440001B680133474A1360404B1B687B66404B57
:102450001B683A6E9A4211D03D4B1968404B00936D
:102460004CF2503301220220FFF726F93E4B1B6845
:1024700001333D4A1360364B1B683B663B4B1B7870
:10248000DBB2002B05D05A20FFF702FD374B0022AC
:102490001A70374B1B687A6DD31A042B08D9344A4B
:1024A0007B6D13600120FFF761FB0220FFF75EFBED
:1024B000304B1B78DBB2012B40F0AC8001F070F99F
:1024C000F8632D4B1B78DBB2002B0CD0204B002285
:1024D0001A601F4B1B681D4A13604FF0FF333B66A9
:1024E0003B6E7B665FE0254B1B78DBB2002B1AD07E
:1024F000234B1B681A46154B1A60144B1B68BA6CA9
:102500009A4203DA114ABB6C136009E0BB6C5A4271
:102510000E4B1B689A4203DDBB6C5B420B4A136097
:10252000164B00221A70174B1B78DBB2002B3AD0E7
:10253000154B1B681A46064B1A60054B1B68BA6C94
:102540009A4223DA024ABB6C136029E0EC040020B3
:10255000F00400200000E0BF0000E03F080500207C
:10256000400D03004C04002050040020E80400202B
:102570001405002044040020DF040020D4040020BF
:10258000BC040020D5040020C0040020BB6C5A42CB
:10259000324B1B689A4203DDBB6C5B422F4A1360CF
:1025A0002F4B00221A702F4B1B78DAB22E4B1B7860
:1025B0009A420ED02B4B1B78DBB2002B04D101F0DA
:1025C000EFF80346294A1360264B1B78DAB2264BF4
:1025D0001A70274B1B68FA6BD31A092B1AD9244B94
:1025E0001B680A33224A1360224B1968224B00935E
:1025F0004CF2503301220120FFF75EF8174B1968A7
:102600001D4B00934CF2503301220220FFF754F887
:10261000FFF730F8194B1B78DBB2002B05D1184BB4
:102620001B78DBB2002B3FF460AD144B00221A7014
:10263000134B00221A700120FFF774FA0220FFF7F3
:1026400071FA012001F0B8F80E4B1B680E4A1268AF
:1026500011461846FFF712FA47E500BFF0040020C4
:10266000D5040020DF040020060500200805002016
:1026700018050020EC040020400D0300E1040020B8
:10268000E2040020C4040020C804002080B594B0F7
:1026900000AF07F1200330220021184605F0CAFDE3
:1026A00007F10C0300221A605A609A60DA601A611E
:1026B0000023BB60284B1B6C274A43F080531364F4
:1026C000254B1B6C03F08053BB60BB6800237B6011
:1026D000224B1B68214A43F4804313601F4B1B6845
:1026E00003F480437B607B6801233B624FF48033BB
:1026F0007B620223BB634FF48003FB6304233B64D0
:10270000A8237B640223BB640723FB6407F1200337
:10271000184602F0D3FC0346002B01D000F05EFB0C
:102720000F23FB6002233B6100237B614FF4A05326
:10273000BB614FF4A053FB6107F10C030521184660
:1027400002F034FF0346002B01D000F047FB00BF2E
:102750005037BD4680BD00BF0038024000700040C9
:1027600080B500AF174B184A1A60164B03225A6007
:10277000144B00229A60134B0022DA60114B4FF485
:1027800030221A610F4B00225A610E4B00221A763A
:102790000C4B01225A760B4B01229A76094B0122EF
:1027A000DA76084B00221A77064B00225A77054842
:1027B00001F026F80346002B01D000F00FFB00BF0C
:1027C00080BD00BFFC0100200068004080B500AF64
:1027D000124B134A1A60114B124A5A600F4B0022D7
:1027E0009A600E4B0022DA600C4B4FF480421A6163
:1027F0000A4B00225A61094B00229A61074B0022C2
:10280000DA61064B00221A62044802F013FB034609
:10281000002B01D000F0E2FA00BF80BD24020020AE
:1028200000540040A086010080B500AF124B134A4F
:102830001A60114B124A5A600F4B00229A600E4BDD
:102840000022DA600C4B4FF480421A610A4B0022DE
:102850005A61094B00229A61074B4022DA61064B0C
:1028600000221A62044802F0E5FA0346002B01D068
:1028700000F0B4FA00BF80BD78020020005C004088
:10288000A086010080B500AF174B184A1A60164B9E
:102890004FF482725A60144B00229A60124B00224D
:1028A000DA60114B02221A610F4B00225A610E4B63
:1028B0004FF400729A610C4B3822DA610A4B802285
:1028C0001A62094B00225A62074B00229A62064B99
:1028D0000A22DA62044803F089F80346002B01D08B
:1028E00000F07CFA00BF80BDCC0200200030014027
:1028F00080B586B000AF07F1080300221A605A6065
:102900009A60DA603B4600221A605A601E4B1F4AEA
:102910001A601D4BA7225A601B4B00229A601A4B6B
:102920004FF6FF72DA60184B00221A61164B002234
:102930005A61154B00229A61134803F083FC034649
:10294000002B01D000F04AFA4FF48053BB6007F12E
:10295000080319460C4803F094FE0346002B01D0EF
:1029600000F03CFA00233B6000237B603B461946A5
:10297000054804F0BFF80346002B01D000F02EFA02
:1029800000BF1837BD4680BD240300200000014071
:1029900080B582B000AF3B4600221A605A60184BE7
:1029A000184A1A60164B53225A60154B00229A603F
:1029B000134B4FF6FE72DA60114B00221A61104B76
:1029C00000225A610E4B00229A6108210C4803F044
:1029D00018FD0346002B01D000F000FA00233B60F5
:1029E00000237B603B461946054804F083F8034604
:1029F000002B01D000F0F2F900BF0837BD4680BDC2
:102A00006C0300200004014080B500AF0E4B0F4A5C
:102A10001A600D4B42F2CF025A600B4B00229A60B3
:102A2000094B40F2F312DA60074B00221A61064BA1
:102A300000229A61044803F005FC0346002B01D0F4
:102A400000F0CCF900BF80BDB4030020002000409E
:102A500080B500AF164B174A1A60154B4FF416524B
:102A60005A60134B00229A60114B0022DA60104B1F
:102A700000221A610E4B0C225A610D4B00229A6102
:102A80000B4B0022DA610A4804F0C4F80346002B1D
:102A900001D000F0A3F9084B1B78DBB21A46074BB4
:102AA000134401221946024804F08FF900BF80BD8B
:102AB000FC03002000440040B40400207404002003
:102AC00080B58CB000AF07F11C0300221A605A6079
:102AD0009A60DA601A610023BB61B74B1B6BB64A80
:102AE00043F010031363B44B1B6B03F01003BB6183
:102AF000BB6900237B61B04B1B6BAF4A43F00403FF
:102B00001363AD4B1B6B03F004037B617B690023F4
:102B10003B61A94B1B6BA84A43F080031363A64B90
:102B20001B6B03F080033B613B690023FB60A24BFE
:102B30001B6BA14A43F0010313639F4B1B6B03F014
:102B40000103FB60FB680023BB609B4B1B6B9A4A35
:102B500043F002031363984B1B6B03F00203BB604B
:102B6000BB6800237B60944B1B6B934A43F00803C4
:102B70001363914B1B6B03F008037B607B6800229F
:102B800088218E4802F018F9012201218C4802F0B8
:102B900013F901224FF400618A4802F00DF9002276
:102BA0004FF21001884802F007F90823FB61012366
:102BB0003B6200237B620023BB6207F11C031946C2
:102BC0007E4801F061FE0123FB6101233B6200238B
:102BD0007B620023BB6207F11C031946784801F0B1
:102BE00053FE0823FB6102233B6200237B62002328
:102BF000BB620523FB6207F11C031946704801F014
:102C000043FE0123FB614FF488133B6201237B6287
:102C100007F11C0319466D4801F036FE1023FB61D5
:102C200002233B6200237B620023BB620623FB621C
:102C300007F11C031946654801F026FE0423FB61D9
:102C400000233B6200237B6207F11C0319465D48A9
:102C500001F01AFE8023FB6101233B6202237B62A9
:102C60000023BB6207F11C031946544801F00CFE17
:102C70004FF48063FB6102233B6200237B620023ED
:102C8000BB620523FB6207F11C0319464D4801F0A6
:102C9000FBFD4FF40063FB6101233B6201237B6278
:102CA0000023BB6207F11C031946464801F0ECFD06
:102CB0004FF21003FB6101233B6200237B62002380
:102CC000BB6207F11C0319463F4801F0DDFD4FF4DC
:102CD000A453FB6102233B6200237B620023BB629F
:102CE0000623FB6207F11C031946354801F0CCFDB1
:102CF0004FF40073FB6100233B6200237B6207F10A
:102D00001C031946314801F0BFFD4FF4E053FB614D
:102D100002233B6200237B620023BB620A23FB6227
:102D200007F11C031946294801F0AEFD0123FB61A0
:102D300002233B6201237B620323BB620923FB6204
:102D400007F11C031946204801F09EFD2023FB617A
:102D500000233B6200237B6207F11C0319461A48DB
:102D600001F092FD0223FB614FF490133B620023BC
:102D70007B6207F11C031946104801F085FD002213
:102D80000021062001F019FD062001F032FD01238B
:102D9000FB614FF404133B6200237B6207F11C03C9
:102DA00019460A4801F070FD00220021062001F0BA
:102DB00004FD06200CE000BF003802400010024075
:102DC0000008024000040240000C024000000240E3
:102DD00001F00FFD00BF3037BD4680BD80B400AFAD
:102DE00072B600BF00BFFDE780B582B000AF002320
:102DF0007B60104B5B6C0F4A43F4804353640D4B74
:102E00005B6C03F480437B607B6800233B60094B71
:102E10001B6C084A43F080531364064B1B6C03F091
:102E200080533B603B68042001F0BCFC00BF0837C6
:102E3000BD4680BD0038024080B58AB000AF7860E2
:102E400007F1140300221A605A609A60DA601A616E
:102E50007B681B68384A93426AD100233B61374B39
:102E60001B6C364A43F080631364344B1B6C03F0D5
:102E700080633B613B690023FB60304B1B6C2F4A36
:102E800043F0007313642D4B1B6C03F00073FB6065
:102E9000FB680023BB60294B1B6B284A43F00203ED
:102EA0001363264B1B6B03F00203BB60BB684FF43C
:102EB00000537B610223BB610023FB6103233B6260
:102EC00009237B6207F1140319461D4801F0DCFC5D
:102ED00020237B610223BB610123FB6103233B624F
:102EE00009237B6207F114031946154801F0CCFC55
:102EF000012200213F2001F060FC3F2001F079FC1D
:102F000000220021402001F058FC402001F071FC1B
:102F100000220021412001F050FC412001F069FC19
:102F200000220021422001F048FC422001F061FC17
:102F300000BF2837BD4680BD006800400038024011
:102F40000004024080B582B000AF78607B681B68E7
:102F5000114A93421CD1114B1B6C104A23F0806321
:102F600013640E4B1B6C0D4A23F00073136442F282
:102F700020010B4801F024FE3F2001F048FC4020D6
:102F800001F045FC412001F042FC422001F03FFCF1
:102F900000BF0837BD4680BD0068004000380240D1
:102FA0000004024080B58CB000AF786007F11C03CC
:102FB00000221A605A609A60DA601A617B681B68A6
:102FC000424A93422DD10023BB61414B1B6B404AC7
:102FD00043F0020313633E4B1B6B03F00203BB6120
:102FE000BB694FF41073FB6112233B6201237B62C8
:102FF0000023BB620423FB6207F11C03194635481A
:1030000001F042FC00237B61314B1B6C304A43F4DE
:10301000001313642E4B1B6C03F400137B617B695C
:1030200050E07B681B682C4A93424BD100233B61E4
:10303000274B1B6B264A43F004031363244B1B6B83
:1030400003F004033B613B690023FB60204B1B6BD7
:103050001F4A43F0010313631D4B1B6B03F0010375
:10306000FB60FB684FF40073FB6112233B6200239B
:103070007B620323BB620423FB6207F11C03194636
:10308000164801F001FC4FF48073FB6112233B6290
:1030900000237B620323BB620423FB6207F11C0352
:1030A00019460F4801F0F0FB0023BB60084B1B6C76
:1030B000074A43F400031364054B1B6C03F400033D
:1030C000BB60BB6800BF3037BD4680BD00540040C8
:1030D0000038024000040240005C0040000802404A
:1030E0000000024080B58AB000AF786007F1140399
:1030F00000221A605A609A60DA601A617B681B6865
:103100001D4A934233D100233B611C4B5B6C1B4A2D
:1031100043F480535364194B5B6C03F480533B615D
:103120003B690023FB60154B1B6B144A43F0010302
:103130001363124B1B6B03F00103FB60FB68E0237E
:103140007B610223BB610023FB6103233B620523F8
:103150007B6207F114031946094801F095FB002230
:103160000121232001F029FB232001F042FB00BFB5
:103170002837BD4680BD00BF003001400038024006
:103180000000024080B584B000AF78607B681B68A7
:10319000284A93422ED10023FB60274B5B6C264AC2
:1031A00043F001035364244B5B6C03F00103FB60A9
:1031B000FB6800220021182001F0FFFA182001F01E
:1031C00018FB00220021192001F0F7FA192001F064
:1031D00010FB002200211A2001F0EFFA1A2001F062
:1031E00008FB002200211B2001F0E7FA1B2001F060
:1031F00000FB1AE07B681B68104A934215D100233C
:10320000BB600D4B1B6C0C4A43F4807313640A4B78
:103210001B6C03F48073BB60BB68002200212D206F
:1032200001F0CBFA2D2001F0E4FA00BF1037BD46C3
:1032300080BD00BF00000140003802400020004077
:1032400080B58AB000AF786007F1140300221A60DD
:103250005A609A60DA601A617B681B68214A93425F
:103260003BD100233B61204B5B6C1F4A43F00203C0
:1032700053641D4B5B6C03F002033B613B6900230D
:10328000FB60194B1B6B184A43F004031363164B86
:103290001B6B03F00403FB60FB6840237B6102238C
:1032A000BB610023FB6100233B6203237B6207F1C8
:1032B000140319460D4801F0E7FA002200212D20E1
:1032C00001F07BFA2D2001F094FA002200212E203B
:1032D00001F073FA2E2001F08CFA00BF2837BD46AA
:1032E00080BD00BF000401400038024000080240D9
:1032F00080B58AB000AF786007F1140300221A602D
:103300005A609A60DA601A617B681B68194A9342B6
:103310002BD100233B61184B1B6C174A43F400333D
:103320001364154B1B6C03F400333B613B690023B2
:10333000FB60114B1B6B104A43F0010313630E4BF0
:103340001B6B03F00103FB60FB680C237B61022312
:10335000BB610023FB6103233B6207237B6207F110
:1033600014031946054801F08FFA00BF2837BD46FF
:1033700080BD00BF00440040003802400000024011
:1033800080B400AF00BFFDE780B400AF00BFFDE731
:1033900080B400AF00BFFDE780B400AF00BFFDE721
:1033A00080B400AF00BFFDE780B400AF00BFBD46F2
:1033B0005DF8047B704780B400AF00BFBD465DF888
:1033C000047B704780B400AF00BFBD465DF8047B4E
:1033D000704780B500AF00F0CFF900BF80BD80B569
:1033E00000AF012001F002FD00BF80BD80B500AF3D
:1033F000024803F056F800BF80BD00BF2403002040
:1034000080B500AF024803F04CF800BF80BD00BF9C
:103410002403002080B500AF024803F042F800BF4B
:1034200080BD00BF2403002080B500AF024803F038
:1034300038F800BF80BD00BF2403002080B500AF76
:10344000024802F005FD00BF80BD00BFCC02002095
:1034500080B500AF034803F024F8034803F021F8D7
:1034600000BF80BD6C030020B403002080B500AF16
:10347000024803F016F800BF80BD00BF6C030020B7
:1034800080B500AF024800F091FE00BF80BD00BFD4
:10349000FC01002080B500AF024800F087FE00BFAD
:1034A00080BD00BFFC01002080B500AF024800F0E5
:1034B0007DFE00BF80BD00BFFC01002080B500AFD5
:1034C000024800F073FE00BF80BD00BFFC01002079
:1034D00080B400AF01231846BD465DF8047B7047F9
:1034E00080B582B000AF7860396004F0F5FE034625
:1034F00016221A604FF0FF3318460837BD4680BDCC
:1035000080B582B000AF78604FF0FF317868FFF788
:10351000E7FF00BFFDE780B586B000AFF860B96097
:103520007A6000237B610AE0AFF300800146BB684C
:103530005A1CBA60CAB21A707B6901337B617A691E
:103540007B689A42F0DB7B6818461837BD4680BD21
:1035500080B586B000AFF860B9607A6000237B6107
:1035600009E0BB685A1CBA601B781846AFF30080AC
:103570007B6901337B617A697B689A42F1DB7B6806
:1035800018461837BD4680BD80B483B000AF786060
:103590004FF0FF3318460C37BD465DF8047B70478B
:1035A00080B483B000AF786039603B684FF400525C
:1035B0005A60002318460C37BD465DF8047B7047FF
:1035C00080B483B000AF7860012318460C37BD4645
:1035D0005DF8047B704780B485B000AFF860B960D7
:1035E0007A60002318461437BD465DF8047B7047A7
:1035F00080B586B000AF7860144A154BD31A7B6152
:103600007B693B61134B1B68002B02D1114B124AA3
:103610001A60104B1A687B6813443A699A4207D2C1
:1036200004F05AFE03460C221A604FF0FF3309E003
:10363000084B1B68FB60074B1A687B681344054AFC
:103640001360FB6818461837BD4680BD0000022095
:10365000000400001C0500207006002080B400AFAC
:10366000064BD3F88830054A43F47003C2F888301B
:1036700000BFBD465DF8047B704700BF00ED00E071
:10368000DFF834D00D480E490E4A002302E0D4582A
:10369000C4500433C4188C42F9D30B4A0B4C00239A
:1036A00001E013600432A242FBD3FFF7D7FF04F01E
:1036B00019FEFEF797FC7047000002200000002072
:1036C000D8010020A4A90008D8010020700600201D
:1036D000FEE7000080B500AF0E4B1B680D4A43F4B7
:1036E000007313600B4B1B680A4A43F4806313603A
:1036F000084B1B68074A43F480731360032001F0F2
:1037000051F8072000F008F8FFF76EFB0023184679
:1037100080BD00BF003C024080B582B000AF786041
:10372000124B1A68124B1B7819464FF47A73B3FB8D
:10373000F1F3B2FBF3F3184601F077F80346002BE0
:1037400001D001230EE07B680F2B0AD80022796894
:103750004FF0FF3001F031F8064A7B681360002318
:1037600000E0012318460837BD4680BD0400002054
:103770000C0000200800002080B400AF064B1B782E
:103780001A46064B1B681344044A136000BFBD462B
:103790005DF8047B704700BF0C000020200500206E
:1037A00080B400AF034B1B681846BD465DF8047B30
:1037B000704700BF2005002080B584B000AF78605E
:1037C000FFF7EEFFB8607B68FB60FB68B3F1FF3F7B
:1037D00005D00A4B1B781A46FB681344FB6000BFF8
:1037E000FFF7DEFF0246BB68D31AFA689A42F7D8A1
:1037F00000BF00BF1037BD4680BD00BF0C000020D9
:1038000080B584B000AF78607B68002B01D10123C4
:10381000EDE07B6893F82030DBB2002B02D17868B2
:10382000FFF70AFB7B681B681A687B681B6842F01D
:1038300001021A60FFF7B4FFF86012E0FFF7B0FF73
:103840000246FB68D31A0A2B0BD97B685B6A43F4E8
:1038500000327B685A627B68052283F820200123AE
:10386000C5E07B681B685B6803F00103002BE5D0B3
:103870007B681B681A687B681B6822F002021A606A
:10388000FFF78EFFF86012E0FFF78AFF0246FB6841
:10389000D31A0A2B0BD97B685B6A43F400327B682E
:1038A0005A627B68052283F8202001239FE07B6811
:1038B0001B685B6803F00203002BE5D17B681B7E6D
:1038C000012B08D17B681B681A687B681B6842F073
:1038D00080021A6007E07B681B681A687B681B68B7
:1038E00022F080021A607B685B7E012B08D17B6826
:1038F0001B681A687B681B6842F040021A6007E088
:103900007B681B681A687B681B6822F040021A609B
:103910007B689B7E012B08D17B681B681A687B68DB
:103920001B6842F020021A6007E07B681B681A6877
:103930007B681B6822F020021A607B68DB7E012B0B
:1039400008D17B681B681A687B681B6822F010022C
:103950001A6007E07B681B681A687B681B6842F086
:1039600010021A607B681B7F012B08D17B681B68E3
:103970001A687B681B6842F008021A6007E07B68DF
:103980001B681A687B681B6822F008021A607B6853
:103990005B7F012B08D17B681B681A687B681B68FA
:1039A00042F004021A6007E07B681B681A687B68B3
:1039B0001B6822F004021A607B689A687B68DB68E7
:1039C0001A437B681B691A437B685B6942EA0301FF
:1039D0007B685B685A1E7B681B680A43DA617B68F8
:1039E00000225A627B68012283F8202000231846B7
:1039F0001037BD4680BD80B582B000AF78607B686F
:103A0000002B01D1012315E0786800F039F97868BE
:103A1000FFF798FA7B681B681A687B681B6842F49A
:103A200000421A607B6800225A627B68002283F899
:103A30002020002318460837BD4680BD80B487B0DB
:103A400000AF786039607B6893F82030FB75FB7DB0
:103A5000012B03D0FB7D022B40F0BE80654B3B6108
:103A60003B69D3F8003243F001023B69C3F80022FE
:103A70003B69D3F8003223F47C523B69C3F800223F
:103A80003B69D3F800223B685B6A1B021A433B691F
:103A9000C3F800223B685B6903F01F03012202FAAE
:103AA00003F3FB603B69D3F81C22FB68DB431A403D
:103AB0003B69C3F81C223B68DB69002B23D13B69BF
:103AC000D3F80C22FB68DB431A403B69C3F80C2295
:103AD0003B68DB6819043B685B689BB23A685269D3
:103AE00019433B69483243F832103B689B6819041C
:103AF0003B681B689AB23B685B690A433969483383
:103B0000DB000B445A603B68DB69012B22D13B6927
:103B1000D3F80C22FB681A433B69C3F80C223B68BC
:103B20001B6819043B685B689BB23A685269194389
:103B30003B69483243F832103B689B6819043B6884
:103B4000DB689AB23B685B690A4339694833DB003A
:103B50000B445A603B689B69002B09D13B69D3F841
:103B60000422FB68DB431A403B69C3F8042207E0E8
:103B70003B69D3F80422FB681A433B69C3F804226B
:103B80003B681B69002B09D13B69D3F81422FB6801
:103B9000DB431A403B69C3F8142207E03B69D3F8C2
:103BA0001422FB681A433B69C3F814223B681B6A62
:103BB000012B07D13B69D3F81C22FB681A433B69F0
:103BC000C3F81C223B69D3F8003223F001023B69A1
:103BD000C3F80022002306E07B685B6A43F480227E
:103BE0007B685A62012318461C37BD465DF8047B8A
:103BF000704700BF0064004080B584B000AF7860BB
:103C00007B6893F82030DBB2012B2ED17B68022237
:103C100083F820207B681B681A687B681B6822F089
:103C200001021A60FFF7BCFDF86012E0FFF7B8FD73
:103C30000246FB68D31A0A2B0BD97B685B6A43F4F4
:103C400000327B685A627B68052283F820200123BA
:103C500012E07B681B685B6803F00103002BE5D171
:103C60007B6800225A62002306E07B685B6A43F4AB
:103C700000227B685A62012318461037BD4680BD7A
:103C800080B584B000AF78607B6893F82030DBB2F9
:103C9000022B33D17B681B681A687B681B6842F073
:103CA00001021A60FFF77CFDF86012E0FFF778FD73
:103CB0000246FB68D31A0A2B0BD97B685B6A43F474
:103CC00000327B685A627B68052283F8202001233A
:103CD0001BE07B681B685B6803F00103002BE5D0E9
:103CE0007B681B681A687B681B6822F002021A60F6
:103CF0007B68012283F82020002306E07B685B6A52
:103D000043F480127B685A62012318461037BD467F
:103D100080BD80B489B000AFF860B9607A603B6064
:103D2000FB6893F82030FB77FB681B689B68BB61DE
:103D3000FB7F012B03D0FB7F022B40F0AD80BB69E2
:103D400003F08063002B0AD1BB6903F00063002BF2
:103D500005D1BB6903F08053002B00F09580BB694F
:103D60001B0E03F003037B6101227B699A403B68D1
:103D70001A60BB689B68002B0DD1BB681B685A0595
:103D8000BB68DB68F96809681A437B6918331B0153
:103D90000B441A600FE0BB685B68DA00BB689B6885
:103DA0001A43BB68DB68F96809681A437B691833F2
:103DB0001B010B441A60FB681968BB681A697B69B0
:103DC00018331B010B4404331A60BB681B7D012BA5
:103DD00011D1FB681A687B6918331B011344043343
:103DE0001B68FA68116843F480727B6918331B0101
:103DF0000B4404331A607B6807331B781A067B6810
:103E000006331B781B041A437B6805331B781B029F
:103E100013437A68043212781046FA68116843EA4C
:103E200000027B691B010B4403F5C6731A607B68B3
:103E300003331B781A067B6802331B781B041A4372
:103E40007B6801331B781B0213437A681278104693
:103E5000FA68116843EA00027B691B010B4403F511
:103E6000C4731A60FB681A687B6918331B0113441A
:103E70001B68FA68116843F001027B6918331B0163
:103E80000B441A6000230EE0FB685B6A43F40012E7
:103E9000FB685A62012306E0FB685B6A43F48022F8
:103EA000FB685A62012318462437BD465DF8047B3F
:103EB000704780B485B000AF78600023FB607B68FA
:103EC00093F82030FB72FB7A012B02D0FB7A022B95
:103ED0001DD17B681B689B6803F08063002B02D0B8
:103EE000FB680133FB607B681B689B6803F0006321
:103EF000002B02D0FB680133FB607B681B689B686A
:103F000003F08053002B02D0FB680133FB60FB6899
:103F100018461437BD465DF8047B704780B487B0FF
:103F200000AFF860B9607A603B60FB6893F82030BE
:103F3000FB75FB7D012B03D0FB7D022B40F0038141
:103F4000BB68002B0ED1FB681B68DB6803F0030322
:103F5000002B16D1FB685B6A43F40012FB685A62BF
:103F60000123F7E0FB681B681B6903F00303002BC8
:103F700007D1FB685B6A43F40012FB685A620123B5
:103F8000E8E0FB681A68BB681B331B0113441B681D
:103F900003F004027B689A607B689B68002B0CD15D
:103FA000FB681A68BB681B331B0113441B685B0D5D
:103FB000C3F30A027B681A600BE0FB681A68BB68EF
:103FC0001B331B0113441B68DB0823F060427B6832
:103FD0005A60FB681A68BB681B331B0113441B68DB
:103FE00003F002027B68DA60FB681A68BB681B3367
:103FF0001B01134404331B6803F00803002B03D098
:104000007B6808221A610BE0FB681A68BB681B33E7
:104010001B01134404331B6803F00F027B681A6111
:10402000FB681A68BB681B331B01134404331B680D
:104030001B0ADAB27B689A61FB681A68BB681B339B
:104040001B01134404331B681B0C9AB27B685A6132
:10405000FB681A68BB681B01134403F5DC731B681B
:10406000DAB23B681A70FB681A68BB681B0113441C
:1040700003F5DC731B681A0A3B680133D2B21A706D
:10408000FB681A68BB681B01134403F5DC731B68EB
:104090001A0C3B680233D2B21A70FB681A68BB680C
:1040A0001B01134403F5DC731B681A0E3B680333D2
:1040B000D2B21A70FB681A68BB681B01134403F57F
:1040C000DE731A683B680433D2B21A70FB681A6850
:1040D000BB681B01134403F5DE731B681A0A3B68B7
:1040E0000533D2B21A70FB681A68BB681B0113440F
:1040F00003F5DE731B681A0C3B680633D2B21A70E4
:10410000FB681A68BB681B01134403F5DE731B6868
:104110001A0E3B680733D2B21A70BB68002B08D165
:10412000FB681B68DA68FB681B6842F02002DA60F3
:1041300007E0FB681B681A69FB681B6842F02002F5
:104140001A61002306E0FB685B6A43F48022FB6887
:104150005A62012318461C37BD465DF8047B704740
:1041600080B485B000AF786039607B6893F8203008
:10417000FB73FB7B012B02D0FB7B022B09D17B68FD
:104180001B6859697B681B683A680A435A610023B7
:1041900006E07B685B6A43F480227B685A620123F5
:1041A00018461437BD465DF8047B704780B58AB069
:1041B00000AF786000237B627B681B685B693B62B1
:1041C0007B681B685B68FB617B681B689B68BB61E5
:1041D0007B681B68DB687B617B681B681B693B61D4
:1041E0007B681B689B69FB603B6A03F00103002B43
:1041F0007CD0BB6903F00103002B23D07B681B68D4
:1042000001229A60BB6903F00203002B03D0786897
:10421000FDF7D0FC16E0BB6903F00403002B04D0CB
:104220007B6A43F400637B620CE0BB6903F0080324
:10423000002B04D07B6A43F480537B6202E07868F1
:1042400000F06BF9BB6903F48073002B24D07B680A
:104250001B684FF480729A60BB6903F40073002BF3
:1042600003D07868FDF7BEFC16E0BB6903F48063F9
:10427000002B04D07B6A43F400537B620CE0BB69E3
:1042800003F40063002B04D07B6A43F480437B6219
:1042900002E0786800F04BF9BB6903F48033002B2F
:1042A00024D07B681B684FF480329A60BB6903F4AA
:1042B0000033002B03D07868FDF7ACFC16E0BB6937
:1042C00003F48023002B04D07B6A43F400437B6219
:1042D0000CE0BB6903F40023002B04D07B6A43F499
:1042E00080337B6202E0786800F02BF93B6A03F0D0
:1042F0000803002B0CD07B6903F01003002B07D0C0
:104300007B6A43F400737B627B681B681022DA606F
:104310003B6A03F00403002B0BD07B6903F0080316
:10432000002B06D07B681B680822DA60786800F0F2
:1043300012F93B6A03F00203002B09D07B681B686B
:10434000DB6803F00303002B02D07868FDF728FA3E
:104350003B6A03F04003002B0CD03B6903F01003D1
:10436000002B07D07B6A43F480637B627B681B6809
:1043700010221A613B6A03F02003002B0BD03B692B
:1043800003F00803002B06D07B681B6808221A6123
:10439000786800F0F4F83B6A03F01003002B09D0B2
:1043A0007B681B681B6903F00303002B02D078684D
:1043B00000F0DBF83B6A03F40033002B0BD0FB6901
:1043C00003F01003002B06D07B681B6810225A6094
:1043D000786800F0DEF83B6A03F48033002B0BD0E2
:1043E000FB6903F00803002B06D07B681B680822DA
:1043F0005A60786800F0D7F83B6A03F40043002B5A
:104400007BD0FB6903F00403002B72D03B6A03F4FA
:104410008073002B08D0FB6803F00103002B03D04E
:104420007B6A43F001037B623B6A03F40073002B59
:1044300008D0FB6803F00203002B03D07B6A43F033
:1044400002037B623B6A03F48063002B08D0FB68A5
:1044500003F00403002B03D07B6A43F004037B6268
:104460003B6A03F40063002B43D0FB6803F0700346
:10447000002B3ED0FB6803F07003602B2BD0602B29
:104480002ED8502B22D0502B2AD8402B19D0402B7D
:1044900026D8302B10D0302B22D8102B02D0202B36
:1044A00005D01DE07B6A43F008037B6219E07B6A5C
:1044B00043F010037B6214E07B6A43F020037B62CD
:1044C0000FE07B6A43F040037B620AE07B6A43F0C3
:1044D00080037B6205E07B6A43F480737B6200E0CB
:1044E00000BF7B681B689A697B681B6822F07002BA
:1044F0009A617B681B6804225A607B6A002B08D093
:104500007B685A6A7B6A1A437B685A627868FDF74F
:1045100099FB00BF2837BD4680BD80B483B000AF93
:10452000786000BF0C37BD465DF8047B704780B4EF
:1045300083B000AF786000BF0C37BD465DF8047BE8
:10454000704780B483B000AF786000BF0C37BD46C1
:104550005DF8047B704780B483B000AF786000BF23
:104560000C37BD465DF8047B704780B483B000AF64
:10457000786000BF0C37BD465DF8047B704780B49F
:1045800083B000AF786000BF0C37BD465DF8047B98
:10459000704780B483B000AF786000BF0C37BD4671
:1045A0005DF8047B704780B483B000AF786000BFD3
:1045B0000C37BD465DF8047B7047000080B485B0C1
:1045C00000AF78607B6803F00703FB600C4BDB688F
:1045D000BB60BA684FF6FF031340BB60FB681A026A
:1045E000BB68134343F0BF6343F40033BB60044A2A
:1045F000BB68D36000BF1437BD465DF8047B7047CD
:1046000000ED00E080B400AF044BDB681B0A03F050
:1046100007031846BD465DF8047B704700ED00E0D7
:1046200080B483B000AF0346FB7197F90730002BCD
:104630000BDBFB7903F01F02074997F907305B0991
:10464000012000FA02F241F8232000BF0C37BD46DA
:104650005DF8047B704700BF00E100E080B483B0E8
:1046600000AF0346FB7197F90730002B12DBFB7993
:1046700003F01F020A4997F907305B09012000FA8D
:1046800002F2203341F82320BFF34F8F00BFBFF366
:104690006F8F00BF00BF0C37BD465DF8047B7047CD
:1046A00000E100E080B483B000AF03463960FB71E5
:1046B00097F90730002B0ADB3B68DAB20C4997F90F
:1046C00007301201D2B20B4483F800230AE03B68A2
:1046D000DAB20849FB7903F00F03043B1201D2B2AE
:1046E0000B441A7600BF0C37BD465DF8047B70475B
:1046F00000E100E000ED00E080B489B000AFF860B8
:10470000B9607A60FB6803F00703FB61FB69C3F1E2
:104710000703042B28BF0423BB61FB690433062B6A
:1047200002D9FB69033B00E000237B614FF0FF32BD
:10473000BB6902FA03F3DA43BB681A407B699A400B
:104740004FF0FF317B6901FA03F3D9437B680B40DB
:10475000134318462437BD465DF8047B70470000BC
:1047600080B582B000AF78607B68013BB3F1807F99
:1047700001D301230FE00A4A7B68013B53600F21FC
:104780004FF0FF30FFF78EFF054B00229A60044B7D
:1047900007221A60002318460837BD4680BD00BFB7
:1047A00010E000E080B582B000AF78607868FFF775
:1047B00005FF00BF0837BD4680BD80B586B000AF9D
:1047C0000346B9607A60FB7300237B61FFF71AFF31
:1047D00078617A68B9687869FFF78EFF024697F9C1
:1047E0000F3011461846FFF75DFF00BF1837BD4672
:1047F00080BD80B582B000AF0346FB7197F90730EA
:104800001846FFF70DFF00BF0837BD4680BD80B5D5
:1048100082B000AF0346FB7197F907301846FFF7E7
:104820001DFF00BF0837BD4680BD80B582B000AF18
:1048300078607868FFF794FF034618460837BD464E
:1048400080BD80B483B000AF78607B6893F835306A
:10485000DBB2022B04D07B6880225A6501230CE076
:104860007B68052283F835207B681B681A687B68A3
:104870001B6822F001021A60002318460C37BD465F
:104880005DF8047B7047000080B489B000AF7860A9
:10489000396000237B6100233B610023BB6100235F
:1048A000FB616BE10122FB6902FA03F37B613B6868
:1048B0001B687A6913403B613A697B699A4240F010
:1048C0005A813B685B6803F00303012B05D03B680A
:1048D0005B6803F00303022B30D17B689B68BB61EC
:1048E000FB695B00032202FA03F3DB43BA6913405E
:1048F000BB613B68DA68FB695B0002FA03F3BA69E3
:104900001343BB617B68BA699A607B685B68BB6173
:104910000122FB6902FA03F3DB43BA691340BB616E
:104920003B685B681B0903F00102FB6902FA03F3B1
:10493000BA691343BB617B68BA695A603B685B68BC
:1049400003F00303032B17D07B68DB68BB61FB69B3
:104950005B00032202FA03F3DB43BA691340BB6135
:104960003B689A68FB695B0002FA03F3BA69134378
:10497000BB617B68BA69DA603B685B6803F003037C
:10498000022B23D1FB69DA087B68083253F8223006
:10499000BB61FB6903F007039B000F2202FA03F3DC
:1049A000DB43BA691340BB613B681A69FB6903F0DA
:1049B00007039B0002FA03F3BA691343BB61FB6967
:1049C000DA087B680832B96943F822107B681B68F3
:1049D000BB61FB695B00032202FA03F3DB43BA69A4
:1049E0001340BB613B685B6803F00302FB695B003B
:1049F00002FA03F3BA691343BB617B68BA691A60B0
:104A00003B685B6803F44033002B00F0B480002364
:104A1000FB60604B5B6C5F4A43F4804353645D4BC7
:104A20005B6C03F48043FB60FB685B4AFB699B089B
:104A3000023352F82330BB61FB6903F003039B0090
:104A40000F2202FA03F3DB43BA691340BB617B68B0
:104A5000524A93422BD07B68514A934225D07B68BF
:104A6000504A93421FD07B684F4A934219D07B68CB
:104A70004E4A934213D07B684D4A93420DD07B68D7
:104A80004C4A934207D07B684B4A934201D107239B
:104A90000EE008230CE006230AE0052308E00423C7
:104AA00006E0032304E0022302E0012300E00023E8
:104AB000FA6902F0030292009340BA691343BB61A2
:104AC0003549FB699B080233BA6941F823203B4B07
:104AD0009B68BB613B69DB43BA691340BB613B68C0
:104AE0005B6803F48013002B03D0BA693B6913435E
:104AF000BB61324ABB699360304BDB68BB613B6989
:104B0000DB43BA691340BB613B685B6803F4001385
:104B1000002B03D0BA693B691343BB61274ABB69C9
:104B2000D360264B5B68BB613B69DB43BA691340CA
:104B3000BB613B685B6803F40033002B03D0BA69A8
:104B40003B691343BB611D4ABB6953601B4B1B6828
:104B5000BB613B69DB43BA691340BB613B685B687F
:104B600003F48033002B03D0BA693B691343BB6164
:104B7000124ABB691360FB690133FB61FB690F2BB0
:104B80007FF690AE00BF00BF2437BD465DF8047BC2
:104B9000704700BF0038024000380140000002406A
:104BA0000004024000080240000C024000100240D5
:104BB0000014024000180240001C0240003C01406A
:104BC00080B487B000AF7860396000233B61002378
:104BD000FB600023BB6000237B61CDE001227B6989
:104BE00002FA03F33B613A683B691340FB60FA68E1
:104BF0003B699A4240F0BD80654A7B699B0802335D
:104C000052F82330BB607B6903F003039B000F2243
:104C100002FA03F3BA681340BB607B685D4A9342B3
:104C20002BD07B685C4A934225D07B685B4A9342D9
:104C30001FD07B685A4A934219D07B68594A9342E5
:104C400013D07B68584A93420DD07B68574A9342F1
:104C500007D07B68564A934201D107230EE0082310
:104C60000CE006230AE0052308E0042306E0032302
:104C700004E0022302E0012300E000237A6902F04D
:104C8000030292009340BA689A4232D1494B1A68A3
:104C9000FB68DB43474913400B60464B5A68FB688F
:104CA000DB43444913404B60424BDA68FB68DB430B
:104CB00040491340CB603F4B9A68FB68DB433D495A
:104CC00013408B607B6903F003039B000F2202FA01
:104CD00003F3BB602E4A7B699B08023352F8231012
:104CE000BB68DA432A487B699B080A40023340F8D4
:104CF00023207B681A687B695B00032101FA03F3B8
:104D0000DB431A407B681A607B69DA087B680832EB
:104D100053F822107B6903F007039B000F2202FA6D
:104D200003F3DB437A69D20819407B68083243F801
:104D300022107B68DA687B695B00032101FA03F3C8
:104D4000DB431A407B68DA607B685A6801217B6923
:104D500001FA03F3DB431A407B685A607B689A6868
:104D60007B695B00032101FA03F3DB431A407B6894
:104D70009A607B6901337B617B690F2B7FF62EAFD5
:104D800000BF00BF1C37BD465DF8047B704700BF05
:104D900000380140000002400004024000080240C8
:104DA000000C0240001002400014024000180240B3
:104DB000001C0240003C014080B483B000AF78602A
:104DC0000B467B8013467B707B78002B03D07A8860
:104DD0007B689A6103E07B881A047B689A6100BF54
:104DE0000C37BD465DF8047B7047000080B582B08B
:104DF00000AF0346FB80084B5A69FB881340002B29
:104E000006D0054AFB885361FB88184600F006F877
:104E100000BF0837BD4680BD003C014080B483B070
:104E200000AF0346FB8000BF0C37BD465DF8047B36
:104E30007047000080B584B000AF78607B68002BBD
:104E400001D101232BE17B6893F83D30DBB2002BCD
:104E500006D17B68002283F83C207868FEF7A2F830
:104E60007B68242283F83D207B681B681A687B6876
:104E70001B6822F001021A607B681B681A687B6855
:104E80001B6842F400421A607B681B681A687B68E2
:104E90001B6822F400421A6000F080FDF8607B6815
:104EA0005B68814A934207D8FB68804A934294BF6B
:104EB00001230023DBB206E0FB687D4A934294BFE6
:104EC00001230023DBB2002B01D00123E7E0FB68C4
:104ED000784AA2FB03239B0CBB607B681B685B6862
:104EE00023F03F017B681B68BA680A435A607B68FD
:104EF0001B681B6A23F03F017B685B686A4A934228
:104F000002D8BB68013309E0BB684FF4967202FB1C
:104F100003F3694AA2FB03239B0901337A681268F1
:104F20000B4313627B681B68DB6923F44F4222F05A
:104F3000FF027B685B685C498B4219D8FB68591E8D
:104F40007B685B685B00B1FBF3F3591C40F6FC73B4
:104F50000B40002B0AD0FB68591E7B685B685B0026
:104F6000B1FBF3F30133C3F30B0351E004234FE030
:104F70007B689B68002B11D1FB68581E7B685968C1
:104F80000B465B000B44B0FBF3F30133C3F30B039D
:104F9000002B0CBF01230023DBB212E0FB68581E7C
:104FA0007B6859680B469B000B4499000B44B0FB8F
:104FB000F3F30133C3F30B03002B0CBF01230023D6
:104FC000DBB2002B01D0012322E07B689B68002B21
:104FD0000ED1FB68581E7B6859680B465B000B447A
:104FE000B0FBF3F30133C3F30B0343F400430FE0CF
:104FF000FB68581E7B6859680B469B000B44990060
:105000000B44B0FBF3F30133C3F30B0343F440430E
:10501000796809681343CB617B681B681B6823F0C0
:10502000C0017B68DA697B681B6A1A437B681B686E
:105030000A431A607B681B689B6823F4034323F0D0
:10504000FF037A6811697A68D26811437A68126836
:105050000B4393607B681B68DB6823F0FF017B6870
:105060005A697B689B691A437B681B680A43DA604C
:105070007B681B681A687B681B6842F001021A6033
:105080007B6800221A647B68202283F83D207B68BD
:1050900000221A637B68002283F83E200023184612
:1050A0001037BD4680BD00BFA08601007F841E0072
:1050B000FF083D0083DE1B43D34D621080B586B0F0
:1050C00000AF78607B68002B01D1012367E27B6829
:1050D0001B6803F00103002B75D0884B9B6803F01D
:1050E0000C03042B0CD0854B9B6803F00C03082B9E
:1050F00012D1824B5B6803F48003B3F5800F0BD1B0
:105100007E4B1B6803F40033002B5BD07B685B682D
:10511000002B57D1012342E27B685B68B3F5803FE7
:1051200006D1764B1B68754A43F4803313601DE04B
:105130007B685B68B3F5A02F0CD1704B1B686F4A7E
:1051400043F4802313606D4B1B686C4A43F4803337
:1051500013600BE0694B1B68684A23F480331360CB
:10516000664B1B68654A23F4802313607B685B6889
:10517000002B13D0FEF714FB386108E0FEF710FB9C
:1051800002463B69D31A642B01D9032307E25B4B28
:105190001B6803F40033002BF0D014E0FEF700FB93
:1051A000386108E0FEF7FCFA02463B69D31A642B2B
:1051B00001D90323F3E1514B1B6803F40033002BA7
:1051C000F0D100E000BF7B681B6803F00203002BF6
:1051D00063D04A4B9B6803F00C03002B0BD0474B6A
:1051E0009B6803F00C03082B1CD1444B5B6803F451
:1051F0008003002B16D1414B1B6803F00203002BE8
:1052000005D07B68DB68012B01D00123C7E13B4B54
:105210001B6823F0F8027B681B69DB0037491343E6
:105220000B603AE07B68DB68002B20D0344B012216
:105230001A60FEF7B5FA386108E0FEF7B1FA0246E7
:105240003B69D31A022B01D90323A8E12B4B1B681E
:1052500003F00203002BF0D0284B1B6823F0F80268
:105260007B681B69DB00254913430B6015E0244B69
:1052700000221A60FEF794FA386108E0FEF790FA0F
:1052800002463B69D31A022B01D9032387E11B4B4A
:105290001B6803F00203002BF0D17B681B6803F04E
:1052A0000803002B36D07B685B69002B16D0154BAA
:1052B00001221A60FEF774FA386108E0FEF770FA0E
:1052C00002463B69D31A022B01D9032367E10B4B3A
:1052D0005B6F03F00203002BF0D01BE0094B0022B0
:1052E0001A60FEF75DFA38610EE0FEF759FA0246E1
:1052F0003B69D31A022B07D9032350E1003802403F
:1053000000004742800E4742884B5B6F03F0020368
:10531000002BEAD17B681B6803F00403002B00F02C
:1053200097800023FB75814B1B6C03F08053002B8F
:105330000FD10023BB607D4B1B6C7C4A43F0805334
:1053400013647A4B1B6C03F08053BB60BB68012372
:10535000FB75774B1B6803F48073002B18D1744BDB
:105360001B68734A43F480731360FEF719FA3861BF
:1053700008E0FEF715FA02463B69D31A022B01D961
:1053800003230CE16A4B1B6803F48073002BF0D0FD
:105390007B689B68012B06D1644B1B6F634A43F00B
:1053A000010313671CE07B689B68052B0CD15F4BE6
:1053B0001B6F5E4A43F0040313675C4B1B6F5B4A31
:1053C00043F0010313670BE0584B1B6F574A23F060
:1053D00001031367554B1B6F544A23F004031367F3
:1053E0007B689B68002B15D0FEF7DAF938610AE07C
:1053F000FEF7D6F902463B69D31A41F2883293424E
:1054000001D90323CBE0494B1B6F03F00203002BB0
:10541000EED014E0FEF7C4F938610AE0FEF7C0F9F7
:1054200002463B69D31A41F28832934201D90323E1
:10543000B5E03E4B1B6F03F00203002BEED1FB7D6A
:10544000012B05D1394B1B6C384A23F08053136470
:105450007B689B69002B00F0A180344B9B6803F0B4
:105460000C03082B5CD07B689B69022B41D1314B2C
:1054700000221A60FEF794F9386108E0FEF790F90F
:1054800002463B69D31A022B01D9032387E0274B3D
:105490001B6803F00073002BF0D17B68DA697B682E
:1054A0001B6A1A437B685B6A9B011A437B689B6A91
:1054B0005B08013B1B041A437B68DB6A1B061B4924
:1054C00013434B601B4B01221A60FEF769F93861E8
:1054D00008E0FEF765F902463B69D31A022B01D9B1
:1054E00003235CE0114B1B6803F00073002BF0D02A
:1054F00054E0104B00221A60FEF752F9386108E0C0
:10550000FEF74EF902463B69D31A022B01D9032359
:1055100045E0064B1B6803F00073002BF0D13DE023
:105520007B689B69012B07D1012338E000380240DA
:1055300000700040600047421B4B5B68FB607B686B
:105540009B69012B28D0FB6803F480027B68DB6930
:105550009A4221D1FB6803F03F027B681B6A9A42A2
:105560001AD1FA6847F6C07313407A68526A9201FA
:10557000934211D1FB6803F440327B689B6A5B085D
:10558000013B1B049A4207D1FB6803F070627B6801
:10559000DB6A1B069A4201D0012300E00023184673
:1055A0001837BD4680BD00BF0038024080B584B0CA
:1055B00000AF786039607B68002B01D10123CCE01B
:1055C000684B1B6803F007033A689A420CD9654B95
:1055D0003A68D2B21A70634B1B6803F007033A684B
:1055E0009A4201D00123B8E07B681B6803F00203F4
:1055F000002B20D07B681B6803F00403002B05D030
:10560000594B9B68584A43F4E05393607B681B688E
:1056100003F00803002B05D0534B9B68524A43F418
:1056200060439360504B9B6823F0F0027B689B685B
:105630004D4913438B607B681B6803F00103002B0B
:1056400044D07B685B68012B07D1474B1B6803F490
:105650000033002B19D101237FE07B685B68022BAC
:1056600003D07B685B68032B07D13F4B1B6803F0BB
:105670000073002B09D101236FE03B4B1B6803F043
:105680000203002B01D1012367E0374B9B6823F015
:1056900003027B685B68344913438B60FEF780F834
:1056A000F8600AE0FEF77CF80246FB68D31A41F284
:1056B0008832934201D903234FE02B4B9B6803F0C0
:1056C0000C027B685B689B009A42EBD1254B1B6800
:1056D00003F007033A689A420CD2224B3A68D2B2DE
:1056E0001A70204B1B6803F007033A689A4201D0F6
:1056F000012332E07B681B6803F00403002B08D011
:10570000194B9B6823F4E0527B68DB68164913430E
:105710008B607B681B6803F00803002B09D0124BD9
:105720009B6823F460427B681B69DB000E491343CE
:105730008B6000F021F802460B4B9B681B0903F0BD
:105740000F030A49CB5C22FA03F3094A1360094BA1
:105750001B681846FDF7E0FF002318461037BD46CA
:1057600080BD00BF003C02400038024008A600088F
:1057700004000020080000202DE9B04F94B000AFD5
:1057800000237B640023FB6400233B640023BB6491
:10579000794B9B6803F00C03082B0DD0082B00F20B
:1057A000E180002B02D0042B03D0DBE0734BBB6401
:1057B000DBE0734BBB64D8E06F4B5B6803F03F03E7
:1057C0007B646D4B5B6803F48003002B63D06A4BF2
:1057D0005B689B090022BB63FA63BB6BC3F30803DE
:1057E0003B6300237B63D7E90C4522462B464FF0F1
:1057F00000004FF00001590141EAD2615001024618
:105800000B462146511A3961294663EB01037B613E
:105810004FF000024FF00003D7E904AB59468B016B
:10582000514643EA916351468A015146B2EB010861
:10583000594663EB01094FF000024FF000034FEAB5
:10584000C90343EA58734FEAC80290469946234673
:1058500018EB0303BB602B4649EB0303FB604FF0DF
:1058600000024FF00003D7E9024529464B022146CA
:1058700043EAD15321464A02104619467B6C002266
:10588000BB62FA62D7E90A23FBF78EF902460B46A0
:105890001346FB6458E0384B5B689B0900221846AE
:1058A0001146C0F308033B6200237B62D7E90889F5
:1058B00042464B464FF000004FF00001590141EACB
:1058C000D261500102460B464146B2EB010A4946FD
:1058D00063EB010B4FF000024FF000034FEA8B1314
:1058E00043EA9A634FEA8A12B2EB0A0463EB0B05B0
:1058F0004FF000024FF00003EB0043EA5473E20064
:1059000014461D464346E3183B604B4645EB0303F4
:105910007B604FF000024FF00003D7E900452946B5
:105920008B02214643EA915321468A0210461946CA
:105930007B6C0022BB61FA61D7E90623FBF734F9DF
:1059400002460B461346FB640B4B5B681B0C03F0D3
:10595000030301335B003B64FA6C3B6CB2FBF3F373
:10596000BB6402E0054BBB6400BFBB6C18465037FC
:10597000BD46BDE8B08F00BF003802400024F400EF
:1059800000127A0080B400AF034B1B681846BD4676
:105990005DF8047B704700BF0400002080B500AFB5
:1059A000FFF7F0FF0246054B9B689B0A03F00703D5
:1059B0000349CB5C22FA03F3184680BD003802404D
:1059C00018A6000880B500AFFFF7DCFF0246054BC4
:1059D0009B685B0B03F007030349CB5C22FA03F3DC
:1059E000184680BD0038024018A6000880B582B075
:1059F00000AF78607B68002B01D101237BE07B68DE
:105A00005B6A002B08D17B685B68B3F5827F09D0A5
:105A10007B680022DA6105E07B6800221A617B68FE
:105A200000225A617B6800229A627B6893F85130A9
:105A3000DBB2002B06D17B68002283F85020786807
:105A4000FDF750FB7B68022283F851207B681B68BE
:105A50001A687B681B6822F040021A607B685B68EA
:105A600003F482727B689B6803F404431A437B68E7
:105A7000DB6803F400631A437B681B6903F00203CD
:105A80001A437B685B6903F001031A437B689B69D7
:105A900003F400731A437B68DB6903F038031A438D
:105AA0007B681B6A03F0800342EA03017B689B6A00
:105AB00003F400527B681B680A431A607B689B6989
:105AC0001B0C03F004017B685B6A03F010027B6827
:105AD0001B680A435A607B681B68DA697B681B682D
